:020000040800F2
:1000000000000220CDE500081DE600081DE60008FE
:100010001DE600081DE600081DE6000800000000BF
:100020000000000000000000000000001DE60008C5
:100030001DE60008000000001DE60008F1D90008D8
:100040001DE600081DE600081DE600081DE6000884
:100050001DE600081DE6000801DA00081DE600089C
:100060001DE600081DE600081DE600081DE6000864
:100070001DE600081DE600081DE600081DE6000854
:100080001DE600081DE600081DE600081DE6000844
:100090001DE600081DE600081DE600081DE6000834
:1000A0001DE600081DE600081DE600081DE6000824
:1000B0001DE600081DE600081DE600081DE6000814
:1000C0001DE600081DE600081DE600081DE6000804
:1000D0001DE600081DE600081DE600081DE60008F4
:1000E0001DE600081DE600081DE600081DE60008E4
:1000F0001DE600081DE600081DE6000811DA0008EC
:100100001DE600081DE600081DE600081DE60008C3
:100110001DE600081DE600081DE600081DE60008B3
:100120001DE600081DE600081DE600081DE60008A3
:100130001DE600081DE600081DE600081DE6000893
:100140001DE600081DE600081DE6000829DA000883
:100150001DE600081DE600081DE600081DE6000873
:100160001DE600081DE600081DE600081DE6000863
:100170001DE600081DE600081DE60008000000005E
:080180001DE600081DE6000861
:1001880010B5054C237833B9044B13B10448AFF3C9
:1001980000800123237010BDE00000200000000053
:1001A80048E8000808B5034B1BB103490348AFF3FF
:1001B800008008BD00000000E400002048E80008B6
:1001C80053B94AB9002908BF00281CBF4FF0FF31B6
:1001D8004FF0FF3000F07AB9ADF1080C6DE904CEAC
:1001E80000F006F8DDF804E0DDE9022304B070470A
:1001F8002DE9F0478C460D460446089E002B51D148
:100208008A4217466DD9B2FA82FEBEF1000F0BD0B2
:10021800CEF1200C01FA0EF520FA0CFC02FA0EF7CA
:100228004CEA050C00FA0EF44FEA174A250CBCFB01
:10023800FAF81FFA87F90AFB18CC45EA0C4508FBBF
:1002480009F3AB420AD9ED1908F1FF3280F0238196
:10025800AB4240F22081A8F102083D44ED1AA4B255
:10026800B5FBFAF00AFB105544EA054400FB09F90E
:10027800A14509D9E41900F1FF3380F00A81A145AD
:1002880040F2078102383C44A4EB090440EA0840E4
:100298000021002E61D024FA0EF40023346073602C
:1002A800BDE8F0878B4207D9002E54D0002186E89C
:1002B80021000846BDE8F087B3FA83F1002940F031
:1002C8008E80AB4202D3824200F2FA80841A65EB38
:1002D80003050120AC46002E3FD086E81010BDE88B
:1002E800F08712B90127B7FBF2F7B7FA87FEBEF11C
:1002F800000F34D1EB1B3A0C1FFA87FC0121B3FB2A
:10030800F2F8250C02FB183345EA03450CFB08F309
:10031800AB4207D9ED1908F1FF3002D2AB4200F227
:10032800D1808046ED1AA3B2B5FBF2F002FB10555E
:1003380043EA05440CFB00FCA44507D9E41900F185
:10034800FF3302D2A44500F2B8801846A4EB0C048F
:1003580040EA08409DE731463046BDE8F087CEF1D7
:10036800200405FA0EF307FA0EF720FA04F83A0CFF
:1003780025FA04F448EA0308B4FBF2F14FEA1845F9
:1003880002FB11441FFA87FC45EA044501FB0CF304
:10039800AB4200FA0EF409D9ED1901F1FF3080F0F3
:1003A8008A80AB4240F2878002393D44EB1A1FFA3B
:1003B80088F5B3FBF2F002FB103345EA034500FB76
:1003C8000CF3AB4207D9ED1900F1FF386FD2AB42FD
:1003D8006DD902383D44EB1A40EA01418FE7C1F17B
:1003E800200722FA07F88B4005FA01F448EA0303CC
:1003F80020FA07FE4FEA134CFD404EEA040EB5FB07
:10040800FCF94FEA1E440CFB19551FFA83F844EA1D
:10041800054509FB08F4AC4202FA01F200FA01FAB8
:1004280008D9ED1809F1FF3043D2AC4241D9A9F1FE
:1004380002091D442D1B1FFA8EFEB5FBFCF00CFBB8
:1004480010554EEA054400FB08F8A04507D9E41802
:1004580000F1FF3529D2A04527D902381C4440EACB
:100468000940A4EB0804A0FB02894C45C6464D464A
:1004780015D312D056B1BAEB0E0364EB050404FA97
:1004880007F7CB401F43CC40376074600021BDE8BC
:10049800F0871846F8E69046E0E6C245EAD2B8EB9F
:1004A800020E69EB03050138E4E72846D7E7404622
:1004B80091E78146BEE7014678E702383C4445E7C4
:1004C800084608E7A8F102083D442BE7704700BF3B
:1004D80080B500AF0E4A0E4B1B6843F400731360DF
:1004E8000B4A0B4B1B6843F480631360084A084BA4
:1004F8001B6843F480731360032000F047F9002061
:1005080000F008F80DF01EFA0023184680BD00BF61
:10051800003C024080B582B000AF7860124B1A6888
:10052800124B1B7819464FF47A73B3FBF1F3B2FB05
:10053800F3F3184600F05FF90346002B01D00123BE
:100548000EE07B680F2B0AD8002279684FF0FF3045
:1005580000F027F9064A7B681360002300E00123B6
:1005680018460837BD4680BD600000200400002002
:100578000000002080B400AF064B1B781A46064BDB
:100588001B681344044A136000BFBD465DF8047B32
:10059800704700BF040000200802002080B400AFAC
:1005A800034B1B681846BD465DF8047B704700BFC7
:1005B8000802002080B584B000AF7860FFF7EEFF36
:1005C800B8607B68FB60FB68B3F1FF3F05D0094B5F
:1005D8001B781A46FB681344FB6000BFFFF7DEFF79
:1005E8000246BB68D21AFB689A42F7D300BF10379D
:1005F800BD4680BD0400002080B485B000AF78609F
:100608007B6803F00703FB600C4BDB68BB60BA68D0
:100618004FF6FF031340BB60FB681A02BB68134325
:1006280043F0BF6343F40033BB60044ABB68D36044
:1006380000BF1437BD465DF8047B704700ED00E04D
:1006480080B400AF044BDB681B0A03F007031846AD
:10065800BD465DF8047B704700ED00E080B483B0D0
:1006680000AF0346FB71094997F907305B09FA792E
:1006780002F01F02012000FA02F241F8232000BF15
:100688000C37BD465DF8047B704700BF00E100E011
:1006980080B483B000AF03463960FB7197F9073027
:1006A800002B0BDA0D49FB7903F00F03043B3A6882
:1006B800D2B21201D2B20B441A7609E0084997F96E
:1006C80007303A68D2B21201D2B20B4483F8002341
:1006D80000BF0C37BD465DF8047B704700ED00E0B5
:1006E80000E100E080B489B000AFF860B9607A60DA
:1006F800FB6803F00703FB61FB69C3F10703042BE5
:1007080028BF0423BB61FB690433062B02D9FB69AC
:10071800033B00E000237B610122BB6902FA03F37B
:100728005A1EBB681A407B699A4001217B6901FA0D
:1007380003F3591E7B680B40134318462437BD4604
:100748005DF8047B7047000080B582B000AF786028
:100758007B68013BB3F1807F01D301230FE00A4A94
:100768007B68013B53600F214FF0FF30FFF790FF8C
:10077800054B00229A60044B07221A600023184692
:100788000837BD4680BD00BF10E000E080B582B0EC
:1007980000AF78607868FFF72FFF00BF0837BD46C5
:1007A80080BD80B586B000AF0346B9607A60FB7340
:1007B80000237B61FFF744FF78617A68B96878693C
:1007C800FFF790FF024697F90F3011461846FFF7DA
:1007D8005FFF00BF1837BD4680BD80B582B000AF4F
:1007E8000346FB7197F907301846FFF737FF00BF3C
:1007F8000837BD4680BD80B582B000AF78607868A4
:10080800FFF7A2FF034618460837BD4680BD000023
:1008180080B483B000AF78607B68042B06D1094AA6
:10082800084B1B6843F00403136005E0054A054BB9
:100838001B6823F00403136000BF0C37BD465DF846
:10084800047B704710E000E080B500AF00F002F8CC
:1008580000BF80BD80B400AF00BFBD465DF8047B1B
:100868007047000080B586B000AF786000237B61D8
:10087800FFF794FE38617B68002B01D1012399E0D2
:100888007B68002283F834207B68022283F83520B5
:100898007B681B687A681268126822F001021A6085
:1008A8000FE0FFF77BFE02463B69D31A052B08D9F8
:1008B8007B6820225A657B68032283F8352003234E
:1008C80078E07B681B681B6803F00103002BE8D104
:1008D8007B681B681B687B617A69384B13407B61B6
:1008E8007B685A687B689B681A437B68DB681A4395
:1008F8007B681B691A437B685B691A437B689B6941
:100908001A437B68DB691A437B681B6A13437A695D
:1009180013437B617B685B6A042B07D17B68DA6AC7
:100928007B681B6B13437A6913437B617B681B6885
:100938007A691A607B681B685B697B617B6923F055
:1009480007037B617B685B6A7A6913437B617B6819
:100958005B6A042B17D17B689B6A7A6913437B61B6
:100968007B68DB6A002B0ED0786800F033FB034607
:10097800002B08D07B6840225A657B68012283F8E7
:100988003520012316E07B681B687A695A6178680C
:1009980000F0EAFA0346FB607B68DB6D3F229A4071
:1009A800FB689A607B6800225A657B68012283F89D
:1009B8003520002318461837BD4680BD3F8010F00B
:1009C80080B584B000AF78607B68002B01D101232B
:1009D8003EE07B6893F83530DBB2022B01D102236D
:1009E80036E07B681B687A681268126822F0010298
:1009F8001A607B681B6800221A607B681B680022EB
:100A08005A607B681B6800229A607B681B6800221A
:100A1800DA607B681B6800221A617B681B682122E8
:100A28005A61786800F0A0FA0346FB607B68DB6DCA
:100A38003F229A40FB689A607B6800225A657B686F
:100A4800002283F835207B68002283F834200023B5
:100A580018461037BD4680BD80B586B000AFF86037
:100A6800B9607A603B600023FB75FB689B6D3B6156
:100A7800FB6893F83430012B01D1022348E0FB686E
:100A8800012283F83420FB6893F83530DBB2012B60
:100A980037D1FB68022283F83520FB6800225A65AB
:100AA8003B687A68B968F86800F030FAFB68DB6D73
:100AB8003F229A403B699A60FB681B68FA68126893
:100AC800126842F016021A60FB681B68FA6812681E
:100AD800526942F080025A61FB681B6C002B07D0F8
:100AE800FB681B68FA681268126842F008021A600C
:100AF800FB681B68FA681268126842F001021A6003
:100B080005E0FB68002283F834200223FB75FB7D97
:100B180018461837BD4680BD80B584B000AF7860F0
:100B28007B689B6DFB60FFF739FDB8607B6893F8C5
:100B38003530DBB2022B08D07B6880225A657B688F
:100B4800002283F83420012352E07B681B687A680E
:100B58001268126822F016021A607B681B687A68AD
:100B68001268526922F080025A617B681B6C002B64
:100B780003D17B689B6C002B07D07B681B687A6865
:100B88001268126822F008021A607B681B687A688B
:100B98001268126822F001021A6013E0FFF7FEFCE7
:100BA8000246BB68D31A052B0CD97B6820225A65EC
:100BB8007B68002283F834207B68032283F8352081
:100BC800032315E07B681B681B6803F00103002BF7
:100BD800E4D17B68DB6D3F229A40FB689A607B68B2
:100BE800002283F834207B68012283F83520002313
:100BF80018461037BD4680BD80B586B000AF786016
:100C08000023BB60924B1B68924AA2FB03239B0AFA
:100C18007B617B689B6D3B613B691B68FB607B6804
:100C2800DB6D08229A40FB681340002B1AD07B68C2
:100C38001B681B6803F00403002B13D07B681B6838
:100C48007A681268126822F004021A607B68DB6D09
:100C580008229A403B699A607B685B6D43F0010209
:100C68007B685A657B68DB6D01229A40FB681340FC
:100C7800002B12D07B681B685B6903F08003002B94
:100C88000BD07B68DB6D01229A403B699A607B68D8
:100C98005B6D43F002027B685A657B68DB6D04225A
:100CA8009A40FB681340002B12D07B681B681B68B6
:100CB80003F00203002B0BD07B68DB6D04229A4003
:100CC8003B699A607B685B6D43F004027B685A65F8
:100CD8007B68DB6D10229A40FB681340002B43D0E1
:100CE8007B681B681B6803F00803002B3CD07B68FB
:100CF800DB6D10229A403B699A607B681B681B6811
:100D080003F48023002B18D07B681B681B6803F44E
:100D18000023002B08D17B681B6C002B24D07B6838
:100D28001B6C786898471FE07B689B6C002B1BD076
:100D38007B689B6C7868984716E07B681B681B6823
:100D480003F48073002B07D17B681B687A681268EC
:100D5800126822F008021A607B681B6C002B03D013
:100D68007B681B6C786898477B68DB6D20229A400B
:100D7800FB681340002B00F08E807B681B681B68A3
:100D880003F01003002B00F086807B68DB6D2022C7
:100D98009A403B699A607B6893F83530DBB2052B43
:100DA80036D17B681B687A681268126822F01602CE
:100DB8001A607B681B687A681268526922F08002A0
:100DC8005A617B681B6C002B03D17B689B6C002BE2
:100DD80007D07B681B687A681268126822F00802DC
:100DE8001A607B68DB6D3F229A403B699A607B689A
:100DF800002283F834207B68012283F835207B6841
:100E08001B6D002B7DD07B681B6D7868984778E058
:100E18007B681B681B6803F48023002B1CD07B684D
:100E28001B681B6803F40023002B08D17B685B6CEC
:100E3800002B30D07B685B6C786898472BE07B6828
:100E4800DB6B002B27D07B68DB6B7868984722E048
:100E580060000020B5814E1B7B681B681B6803F48B
:100E68008073002B0FD17B681B687A681268126840
:100E780022F010021A607B68002283F834207B6815
:100E8800012283F835207B68DB6B002B03D07B685D
:100E9800DB6B786898477B685B6D002B32D07B688A
:100EA8005B6D03F00103002B22D07B68052283F8D9
:100EB80035207B681B687A681268126822F0010284
:100EC8001A60BB680133BB607A69934207D87B68B4
:100ED8001B681B6803F00103002BF2D100E000BF80
:100EE8007B68002283F834207B68012283F8352050
:100EF8007B68DB6C002B05D07B68DB6C78689847D7
:100F080000E000BF1837BD4680BD00BF80B485B083
:100F180000AFF860B9607A603B60FB681B68FA68EC
:100F28001268126822F480221A60FB681B683A680B
:100F38005A60FB689B68402B08D1FB681B687A687D
:100F48009A60FB681B68BA68DA6007E0FB681B6890
:100F5800BA689A60FB681B687A68DA6000BF143761
:100F6800BD465DF8047B704780B485B000AF7860FB
:100F78007B681B68DBB2103B144AA2FB03231B09E6
:100F8800FB60134AFB6813441B781A467B68DA65D2
:100F9800FB68032B09D97B681B6823F47F7323F054
:100FA80003031A1D7B689A6507E07B681B6823F4B6
:100FB8007F7323F003037A6893657B689B6D1846FB
:100FC8001437BD465DF8047B704700BFABAAAAAAD8
:100FD80038E9000880B485B000AF78600023FB735F
:100FE8007B689B6ABB607B689B69002B1FD1BB68D1
:100FF800032B55D801A252F823F000BF15100008A2
:101008002710000815100008A91000087B68DB6A83
:1010180003F08073002B45D00123FB7342E07B680B
:10102800DB6AB3F1C07F3FD10123FB733CE07B68EF
:101038009B69B3F5005F21D1BB68032B36D801A2A9
:1010480052F823F05D100008631000085D100008D6
:10105800751000080123FB732FE07B68DB6A03F03F
:101068008073002B24D00123FB7321E07B68DB6AAB
:10107800B3F1C07F1ED10123FB731BE0BB68022BB9
:1010880002D9032B03D018E00123FB7315E07B681A
:10109800DB6A03F08073002B0ED00123FB730BE097
:1010A80000BF0AE000BF08E000BF06E000BF04E0A0
:1010B80000BF02E000BF00E000BFFB7B184614370A
:1010C800BD465DF8047B704780B489B000AF786096
:1010D800396000237B6100233B610023BB6100234F
:1010E800FB616BE10122FB6902FA03F37B613B6858
:1010F8001A687B6913403B613A697B699A4240F000
:101108005A813B685B68022B03D03B685B68122BF3
:1011180023D1FB69DA087B68083253F82230BB61B7
:10112800FB6903F007039B000F2202FA03F3DB437A
:10113800BA691340BB613B681A69FB6903F007038E
:101148009B0002FA03F3BA691343BB61FB69DA082F
:101158007B680832B96943F822107B681B68BB6159
:10116800FB695B00032202FA03F3DB43BA6913400D
:10117800BB613B685B6803F00302FB695B0002FA32
:1011880003F3BA691343BB617B68BA691A603B68A9
:101198005B68012B0BD03B685B68022B07D03B6870
:1011A8005B68112B03D03B685B68122B30D17B68DE
:1011B8009B68BB61FB695B00032202FA03F3DB4314
:1011C800BA691340BB613B68DA68FB695B0002FAE5
:1011D80003F3BA691343BB617B68BA699A607B6899
:1011E8005B68BB610122FB6902FA03F3DB43BA695E
:1011F8001340BB613B685B681B0903F00102FB6994
:1012080002FA03F3BA691343BB617B68BA695A608F
:101218007B68DB68BB61FB695B00032202FA03F3AE
:10122800DB43BA691340BB613B689A68FB695B00A2
:1012380002FA03F3BA691343BB617B68BA69DA60DF
:101248003B685B6803F08053002B00F0B4800023F8
:10125800FB605F4A5E4B5B6C43F4804353645C4BBA
:101268005B6C03F48043FB60FB685A4AFB699B088C
:10127800023352F82330BB61FB6903F003039B0080
:101288000F2202FA03F3DB43BA691340BB617B68A0
:10129800514A93422BD07B68504A934225D07B68B1
:1012A8004F4A93421FD07B684E4A934219D07B68BD
:1012B8004D4A934213D07B684C4A93420DD07B68C9
:1012C8004B4A934207D07B684A4A934201D107238D
:1012D8000EE008230CE006230AE0052308E00423B7
:1012E80006E0032304E0022302E0012300E00023D8
:1012F800FA6902F0030292009340BA691343BB6192
:101308003449FB699B080233BA6941F823203A4BF8
:101318001B68BB613B69DB43BA691340BB613B682F
:101328005B6803F48033002B03D0BA693B6913432D
:10133800BB61314ABB6913602F4B5B68BB613B697A
:10134800DB43BA691340BB613B685B6803F4003355
:10135800002B03D0BA693B691343BB61264ABB69BA
:101368005360254B9B68BB613B69DB43BA691340FB
:10137800BB613B685B6803F48013002B03D0BA6938
:101388003B691343BB611C4ABB6993601A4BDB681A
:10139800BB613B69DB43BA691340BB613B685B686F
:1013A80003F40013002B03D0BA693B691343BB61F4
:1013B800114ABB69D360FB690133FB61FB690F2BE1
:1013C8007FF690AE00BF2437BD465DF8047B7047BA
:1013D800003802400038014000000240000402408A
:1013E80000080240000C02400010024000140240B5
:1013F80000180240001C0240003C014080B487B045
:1014080000AF7860396000233B610023FB60002354
:10141800BB6000237B61CEE001227B6902FA03F303
:101428003B613A683B691340FB60FA683B699A4242
:1014380040F0BE807B681A687B695B00032101FA73
:1014480003F3DB431A407B681A607B69DA087B691F
:10145800D9087B68083153F821107B6903F007032A
:101468009B000F2000FA03F3DB4319407B68083226
:1014780043F822107B689A687B695B00032101FAB4
:1014880003F3DB431A407B689A607B685A68012142
:101498007B6901FA03F3DB431A407B685A607B6877
:1014A800DA687B695B00032101FA03F3DB431A4026
:1014B8007B68DA60454A7B699B08023352F823301F
:1014C800BB607B6903F003039B000F2202FA03F35E
:1014D800BA681340BB607B683D4A93422BD07B6857
:1014E8003C4A934225D07B683B4A93421FD07B6895
:1014F8003A4A934219D07B68394A934213D07B68A1
:10150800384A93420DD07B68374A934207D07B68AC
:10151800364A934201D107230EE008230CE0062344
:101528000AE0052308E0042306E0032304E002237D
:1015380002E0012300E000237A6902F0030292002E
:1015480003FA02F2BB689A4232D17B6903F00303C3
:101558009B000F2202FA03F3BB601C487B699B08BF
:101568001A497A699208023251F82210BA68D243AD
:101578000A40023340F823201D491D4B1A68FB68B6
:10158800DB4313400B601A49194B5A68FB68DB436D
:1015980013404B601649164B9A68FB68DB431340AF
:1015A8008B601349124BDA68FB68DB431340CB604E
:1015B8007B6901337B617B690F2B7FF62DAF00BF01
:1015C8001C37BD465DF8047B704700BF00380140FA
:1015D800000002400004024000080240000C0240E3
:1015E800001002400014024000180240001C024093
:1015F800003C014080B483B000AF78600B467B802C
:1016080013467B707B78002B03D07A887B689A61BD
:1016180003E07B881A047B689A6100BF0C37BD46DB
:101628005DF8047B7047000080B582B000AF0346C8
:10163800FB80084B5A69FB881340002B06D0054AEB
:10164800FB885361FB8818460CF096FE00BF0837EC
:10165800BD4680BD003C0140F0B58DB00AAF786052
:101668007B68002B01D101233EE07B68032283F8CD
:10167800912278680CF062FA7B681B68184603F0C0
:10168800C4FF7B681B683B607E686D4606F11004EA
:101698000FCC0FC50FCC0FC594E8030085E80300F5
:1016A800331D0ECB386803F04EFF7B681B680121A1
:1016B800184603F0BBFF7B681B683B607E686D467D
:1016C80006F110040FCC0FC50FCC0FC594E803002A
:1016D80085E80300331D0ECB386804F0CBF87B682F
:1016E800012283F89122002318460C37BD46F0BD2D
:1016F80090B589B004AF7860084611461A4603468B
:10170800FB700B46BB7013467B700023FB737B6832
:1017180093F89032012B01D102236CE07B680122FF
:1017280083F89022FA78796813469B001344DB000B
:101738000B4438337A781A70FA78796813469B0024
:101748001344DB000B4440333A8D1A80FA787968E9
:1017580013469B001344DB000B443933FA781A70A4
:10176800FA78796813469B001344DB000B443F3337
:1017780097F824201A70FA78BB7803F07F03D8B260
:10178800796813469B001344DB000B443A33024646
:101798001A70FA7897F90230DBB2DB09DBB2184627
:1017A800796813469B001344DB000B443B33024625
:1017B8001A70FA78796813469B001344DB000B44CF
:1017C8003C3397F820201A707B6818687C78BA78C0
:1017D800F9783B8D029397F82430019397F82030DD
:1017E8000093234604F0AAF90346FB737B680022A2
:1017F80083F89022FB7B18461437BD4690BD80B510
:1018080084B000AF78600B46FB700023FB737B68E5
:1018180093F89032012B01D102230FE07B6801225B
:1018280083F890227B681B68FA781146184604F002
:10183800CEFB7B68002283F89022FB7B184610378A
:10184800BD4680BD80B582B000AF786008461146BD
:101858001A460346FB700B46BB7013467B70FA783A
:10186800796813469B001344DB000B443B33BA787A
:101878001A70FA78796813469B001344DB000B440E
:101888003F337A781A703B7C002B0AD1FA78796852
:1018980013469B001344DB000B44423303221A70A7
:1018A80009E0FA78796813469B001344DB000B447F
:1018B800423302221A707B78032B00F2048101A2C2
:1018C80052F823F0DD180008B31A0008751900084B
:1018D800291A00083B7C012B40F0F280BB78002BD2
:1018E80040F0EE803B8B002B09D1FA7879681346DB
:1018F8009B001344DB000B44513301221A70FA7821
:10190800796813469B001344DB000B4451331B7862
:10191800002B0AD1FA78796813469B001344DB0040
:101928000B44423300221A7009E0FA7879681346AA
:101938009B001344DB000B44423302221A70FA78EE
:10194800796813469B001344DB000B445C331B7817
:10195800022B00F0B580FA78796813469B0013448F
:10196800DB000B443D333A7F1A70A9E0BB78002BAB
:1019780035D1FA78796813469B001344DB000B4491
:1019880051331B78002B0AD1FA78796813469B00EB
:101998001344DB000B44423300221A7009E0FA7842
:1019A800796813469B001344DB000B444233022240
:1019B8001A70FA78796813469B001344DB000B44CD
:1019C8005C331B78022B7DD0FA78796813469B002C
:1019D8001344DB000B443D333A7F1A7072E0FA7807
:1019E800796813469B001344DB000B4450331B7883
:1019F800002B0AD1FA78796813469B001344DB0060
:101A08000B44423300221A705CE0FA787968134676
:101A18009B001344DB000B44423302221A7051E04E
:101A2800BB78002B20D1FA78796813469B001344C1
:101A3800DB000B4451331B78002B0AD1FA78796804
:101A480013469B001344DB000B44423300221A70F8
:101A580039E0FA78796813469B001344DB000B449D
:101A6800423302221A702EE0FA78796813469B00F6
:101A78001344DB000B4450331B78002B0AD1FA784F
:101A8800796813469B001344DB000B444233002261
:101A98001A7018E0FA78796813469B001344DB0043
:101AA8000B44423302221A700DE0FA787968134623
:101AB8009B001344DB000B44423300221A7002E0FF
:101AC80000BF00E000BFFA78796813469B00134412
:101AD800DB000B4444337A691A60FA78398B7868EA
:101AE80013469B001344DB00034448331960FA781B
:101AF800796813469B001344DB000B445C330022D7
:101B08001A70FA78796813469B001344DB000B447B
:101B18004C3300221A60FA78796813469B00134404
:101B2800DB000B443933FA781A70FA78796813466F
:101B38009B001344DB000B445D3300221A707B6862
:101B48001868FA7813469B001344DB0038337A6828
:101B5800D1187B681B69DBB21A4604F0EBF8034620
:101B680018460837BD4680BD80B586B000AF78609E
:101B78007B681B683B6100237B610023FB607B68FB
:101B88001B68184603F033FE0346012B40F0E9803A
:101B98007B681B68184603F015FE0346002B00F00F
:101BA800DF807B681B68184603F00CFE034603F4CD
:101BB8000013B3F5001F04D17B681B684FF40012B3
:101BC8005A617B681B68184603F0FCFD034603F462
:101BD8008013B3F5801F04D17B681B684FF4801213
:101BE8005A617B681B68184603F0ECFD034603F056
:101BF8008063B3F1806F04D17B681B684FF080620B
:101C08005A617B681B68184603F0DCFD034603F045
:101C18000203022B03D17B681B6802225A617B688E
:101C28001B68184603F0CEFD034603F00053B3F1DA
:101C3800005F18D13B6903F588631A463B6903F5D1
:101C480088631B6823F02E03136078680BF0DEFFAF
:101C58007B681B680121184603F0B8FE7B681B6887
:101C68004FF000525A617B681B68184603F0AAFDC2
:101C7800034603F08073B3F1807F02D1786801F0E6
:101C88001BF87B681B68184603F09CFD034603F0AD
:101C98000803082B06D178680BF09CFF7B681B684B
:101CA80008225A617B681B68184603F08BFD0346BF
:101CB80003F00073B3F1007F34D17B681B681846CA
:101CC80004F076F9F86000237B6121E001227B694A
:101CD8009A40FB681340002B17D07B695A013B6977
:101CE800134403F5A0631B6803F40043002B06D0DC
:101CF8007B69DBB21946786800F0CAF805E07B69B1
:101D0800DBB21946786800F003FC7B6901337B611C
:101D18007B689A687B699A42D8D87B681B684FF0C1
:101D280000725A617B681B68184603F04BFD034636
:101D380003F01003102B14D17B681B687A681268B3
:101D4800926922F010029A61786800F003FF7B68BC
:101D58001B687A681268926942F010029A6100E082
:101D680000BF1837BD4680BD80B582B000AF78602F
:101D78007B6893F89032012B01D1022313E07B6832
:101D8800012283F890227B681B68184603F02CFC1C
:101D98007B681B680121184603F077FE7B680022E8
:101DA80083F89022002318460837BD4680BD80B5C9
:101DB80082B000AF78607B6893F89032012B01D134
:101DC80002230DE07B68012283F890227B681B6860
:101DD800184604F021FA7B68002283F89022002339
:101DE80018460837BD4680BD80B582B000AF786020
:101DF8007B681B68184603F023FE0346184608371D
:101E0800BD4680BD80B483B000AF78600B46FB70E0
:101E1800FA78796813469B001344DB000B445C3363
:101E28001B7818460C37BD465DF8047B704780B4B4
:101E380083B000AF78600B46FB70FA787968134678
:101E48009B001344DB000B444C331B6818460C37CB
:101E5800BD465DF8047B704780B582B000AF7860FE
:101E68007B681B68184603F05AFE03461846083775
:101E7800BD4680BD80B582B000AF78607B681B68C6
:101E8800184603F039FE034618460837BD4680BD9C
:101E980090B585B000AF78600B46FB707B681B6817
:101EA800FB600023BB60FB785A01FB68134403F511
:101EB800A0639B6803F00403002B1AD0FB785A0137
:101EC800FB68134403F5A0631A4604239360FB7868
:101ED8005A01FB68134403F5A0631946FB785A01BD
:101EE800FB68134403F5A063DB6843F00203CB608F
:101EF80094E0FB785A01FB68134403F5A0639B68E0
:101F080003F02003002B09D0FB785A01FB68134427
:101F180003F5A0631A46202393607FE0FB785A01FB
:101F2800FB68134403F5A0639B6803F00803002BC8
:101F380034D0FB785A01FB68134403F5A0631946B3
:101F4800FB785A01FB68134403F5A063DB6843F090
:101F58000203CB60FA78796813469B001344DB00D0
:101F68000B445D3305221A70FB785A01FB68134451
:101F780003F5A0631A4610239360FB785A01FB68A7
:101F8800134403F5A0631A46082393607B681B6813
:101F9800FA781146184604F01AF83FE0FB785A011F
:101FA800FB68134403F5A0639B6803F48063002B6C
:101FB80034D0FB785A01FB68134403F5A063194633
:101FC800FB785A01FB68134403F5A063DB6843F010
:101FD8000203CB607B681B68FA781146184603F049
:101FE800F6FFFB785A01FB68134403F5A0631A4611
:101FF80010239360FA78796813469B001344DB003A
:102008000B445D3308221A70FB785A01FB681344AD
:1020180003F5A0631A464FF480639360FB785A0176
:10202800FB68134403F5A0639B6803F40073002B5B
:1020380022D0FB785A01FB68134403F5A0631946C4
:10204800FB785A01FB68134403F5A063DB6843F08F
:102058000203CB607B681B68FA781146184603F0C8
:10206800B6FFFB785A01FB68134403F5A0631A46D0
:102078004FF40073936047E2FB785A01FB681344FE
:1020880003F5A0639B6803F00103002B00F0C080F8
:102098007B681B69002B1BD0FA78F97878680B46A7
:1020A8009B000B44DB00034448331968FB78580154
:1020B800FB68034403F5A0631B69C3F31203C91A41
:1020C800786813469B001344DB0003444C331960C3
:1020D800FA78796813469B001344DB000B445D33A0
:1020E80001221A70FA78796813469B001344DB00C2
:1020F8000B44583300221A60FB785A01FB681344DA
:1021080003F5A0631A4601239360FA7879681346A9
:102118009B001344DB000B443F331B78002B0AD091
:10212800FA78796813469B001344DB000B443F336D
:102138001B78022B21D1FB785A01FB68134403F565
:10214800A0631946FB785A01FB68134403F5A063A2
:10215800DB6843F00203CB607B681B68FA781146A2
:10216800184603F034FFFB785A01FB68134403F563
:10217800A0631A461023936033E0FA78796813460F
:102188009B001344DB000B443F331B78032B28D1FF
:10219800FB785A01FB68134403F5A0631946FB78E2
:1021A8005A01FB68134403F5A0631B6843F000530E
:1021B8000B60FA78796813469B001344DB000B44E4
:1021C8005C3301221A70FA78796813469B0013442D
:1021D800DB000B445C331A78FB78194678680BF0FF
:1021E80023FDFA78F97878680B469B000B44DB00EE
:1021F800034450331B7883F00103D8B2796813463F
:102208009B001344DB000B44503302461A707BE1F9
:10221800FB785A01FB68134403F5A0639B6803F03D
:102228000203002B00F0B780FB785A01FB681344C7
:1022380003F5A0631946FB785A01FB68134403F5BC
:10224800A063DB6823F00203CB60FA787968134651
:102258009B001344DB000B445D331B78012B0AD130
:10226800FA78796813469B001344DB000B445C330F
:1022780001221A7077E0FA78796813469B001344B4
:10228800DB000B445D331B78052B0AD1FA7879689B
:1022980013469B001344DB000B445C3305221A7081
:1022A80061E0FA78796813469B001344DB000B441D
:1022B8005D331B78062B0AD0FA78796813469B00A1
:1022C8001344DB000B445D331B78082B4BD1FA78A1
:1022D800796813469B001344DB000B445833196894
:1022E800481C7C6813469B001344DB002344583386
:1022F8001860032914D9FA78796813469B001344A7
:10230800DB000B44583300221A60FA7879681346C8
:102318009B001344DB000B445C3304221A7009E071
:10232800FA78796813469B001344DB000B445C334E
:1023380002221A70FB785A01FB68134403F5A06364
:102348001B68BB60BB6823F08043BB60BB6843F07D
:102358000043BB60FB785A01FB68134403F5A06394
:102368001A46BB681360FB785A01FB68134403F5EF
:10237800A0631A4602239360FA78796813469B0093
:102388001344DB000B445C331A78FB7819467868F1
:102398000BF04AFCB8E0FB785A01FB68134403F5DC
:1023A800A0639B6803F08003002B3DD0FB785A01A3
:1023B800FB68134403F5A0631946FB785A01FB68D0
:1023C800134403F5A063DB6843F00203CB60FA789B
:1023D800796813469B001344DB000B4458331B6891
:1023E800591C786813469B001344DB000344583398
:1023F8001960FA78796813469B001344DB000B4494
:102408005D3306221A707B681B68FA7811461846F5
:1024180003F0DDFDFB785A01FB68134403F5A06364
:102428001A46802393606FE0FB785A01FB681344D7
:1024380003F5A0639B6803F01003002B64D0FA78BF
:10244800796813469B001344DB000B443F331B7829
:10245800032B17D1FB785A01FB68134403F5A063DB
:102468001946FB785A01FB68134403F5A063DB683F
:1024780043F00203CB607B681B68FA781146184664
:1024880003F0A5FDFA78796813469B001344DB0036
:102498000B445D3303221A70FB785A01FB6813441E
:1024A80003F5A0631A4610239360FA7879681346F7
:1024B8009B001344DB000B443F331B78002B0AD0EE
:1024C800FA78796813469B001344DB000B443F33CA
:1024D8001B78022B18D1FB785A01FB68134403F5CB
:1024E800A0631B68BB60BB6823F08043BB60BB680C
:1024F80043F00043BB60FB785A01FB68134403F5C3
:10250800A0631A46BB68136000BF1437BD4690BD70
:1025180090B585B000AF78600B46FB707B681B6890
:10252800FB60FB785A01FB68134403F5A0639B68C2
:1025380003F00403002B1AD0FB785A01FB681344FC
:1025480003F5A0631A4604239360FB785A01FB68DD
:10255800134403F5A0631946FB785A01FB6813443A
:1025680003F5A063DB6843F00203CB60EDE2FB7880
:102578005A01FB68134403F5A0639B6803F020032A
:10258800002B41D0FB785A01FB68134403F5A06384
:102598001A4620239360FA78796813469B001344FF
:1025A800DB000B443D331B78012B40F0CE82FA78D8
:1025B800796813469B001344DB000B445D33042207
:1025C8001A70FB785A01FB68134403F5A063194697
:1025D800FB785A01FB68134403F5A063DB6843F0FA
:1025E8000203CB607B681B68FA781146184603F033
:1025F800EEFCFA78796813469B001344DB000B4421
:102608005C3302221A70A0E2FB785A01FB6813447B
:1026180003F5A0639B6803F04003002B35D0FA78DC
:10262800796813469B001344DB000B445D33042296
:102638001A70FA78796813469B001344DB000B4440
:10264800583300221A60FB785A01FB68134403F5DB
:10265800A0631946FB785A01FB68134403F5A0638D
:10266800DB6843F00203CB607B681B68FA7811468D
:10267800184603F0ACFCFB785A01FB68134403F5D9
:10268800A0631A46402393605FE2FB785A01FB6817
:10269800134403F5A0639B6803F40073002B22D056
:1026A800FB785A01FB68134403F5A0631946FB78CD
:1026B8005A01FB68134403F5A063DB6843F0020387
:1026C800CB607B681B68FA781146184603F07FFCDC
:1026D800FB785A01FB68134403F5A0631A464FF4CC
:1026E8000073936031E2FB785A01FB68134403F5E9
:1026F800A0639B6803F00103002B35D0FA78796852
:1027080013469B001344DB000B44583300221A6025
:10271800FB785A01FB68134403F5A0631946FB785C
:102728005A01FB68134403F5A063DB6843F0020316
:10273800CB607B681B68FA781146184603F047FCA3
:10274800FB785A01FB68134403F5A0631A4601237A
:102758009360FA78796813469B001344DB000B44B6
:102768005D3301221A70F0E1FB785A01FB681344CB
:1027780003F5A0639B6803F00803002B2BD0FB78BC
:102788005A01FB68134403F5A0631A4608239360B3
:10279800FB785A01FB68134403F5A0631946FB78DC
:1027A8005A01FB68134403F5A063DB6843F0020396
:1027B800CB607B681B68FA781146184603F007FC63
:1027C800FA78796813469B001344DB000B445D33A9
:1027D80005221A70B9E1FB785A01FB68134403F526
:1027E800A0639B6803F01003002B35D0FA78796852
:1027F80013469B001344DB000B44583300221A6035
:10280800FB785A01FB68134403F5A0631946FB786B
:102818005A01FB68134403F5A063DB6843F0020325
:10282800CB607B681B68FA781146184603F0CFFB2B
:10283800FA78796813469B001344DB000B445D3338
:1028480003221A70FB785A01FB68134403F5A0634E
:102858001A461023936078E1FB785A01FB68134409
:1028680003F5A0639B6803F08003002B2BD0FB7853
:102878005A01FB68134403F5A0631946FB785A0113
:10288800FB68134403F5A063DB6843F00203CB60E5
:102898007B681B68FA781146184603F098FBFA78AB
:1028A800796813469B001344DB000B445D33062212
:1028B8001A70FB785A01FB68134403F5A0631A46A3
:1028C8008023936041E1FB785A01FB68134403F5C8
:1028D800A0639B6803F48063002B35D0FB785A0112
:1028E800FB68134403F5A0631946FB785A01FB689B
:1028F800134403F5A063DB6843F00203CB607B68F5
:102908001B68FA781146184603F061FBFB785A01F8
:10291800FB68134403F5A0631A4610239360FB7801
:102928005A01FB68134403F5A0631A464FF4806309
:102938009360FA78796813469B001344DB000B44D4
:102948005D3308221A7000E1FB785A01FB681344D2
:1029580003F5A0639B6803F00203002B00F0F580E9
:10296800FB785A01FB68134403F5A0631946FB780A
:102978005A01FB68134403F5A063DB6823F00203E4
:10298800CB60FA78796813469B001344DB000B444C
:102998005D331B78012B2CD1FA78796813469B009C
:1029A8001344DB000B445C3301221A70FA7879680F
:1029B80013469B001344DB000B443F331B78022B68
:1029C80040F0AC80FA78F97878680B469B000B44A5
:1029D800DB00034451331B7883F00103D8B27968D4
:1029E80013469B001344DB000B44513302461A7014
:1029F80094E0FA78796813469B001344DB000B4493
:102A08005D331B78032B0AD1FA78796813469B004B
:102A18001344DB000B445C3302221A707EE0FA7820
:102A2800796813469B001344DB000B445D331B7825
:102A3800042B14D1FA78796813469B001344DB0001
:102A48000B445C3302221A70FA78796813469B00AB
:102A58001344DB000B443D3300221A705EE0FA7821
:102A6800796813469B001344DB000B445D331B78E5
:102A7800052B0AD1FA78796813469B001344DB00CA
:102A88000B445C3305221A7048E0FA7879681346DB
:102A98009B001344DB000B445D331B78062B0AD0E4
:102AA800FA78796813469B001344DB000B445D33C6
:102AB8001B78082B32D1FA78796813469B001344A7
:102AC800DB000B4458331968481C7C6813469B008C
:102AD8001344DB00234458331860032914D9FA78C7
:102AE800796813469B001344DB000B4458330022DB
:102AF8001A60FA78796813469B001344DB000B448C
:102B08005C3304221A7009E0FA78796813469B004E
:102B18001344DB000B445C3302221A70FB785A0121
:102B2800FB68134403F5A0631A4602239360FA78FE
:102B3800796813469B001344DB000B445C331A7816
:102B4800FB78194678680BF06FF800BF1437BD465C
:102B580090BD000080B588B000AF78607B681B68C6
:102B6800FB610023FB7600237B6100233B617B68CC
:102B78001B681B6A7B617B69DBB203F00F03FB7682
:102B88007B695B0C03F00F03FB607B691B09C3F3D4
:102B98000A03BB60FB68022B03D0052B00F0828080
:102BA80083E0BB68002B7FD0FA7E796813469B00D0
:102BB8001344DB000B4444331B68002B74D07B6840
:102BC8001868FA7E796813469B001344DB000B44AF
:102BD80044331B68BA6892B2194602F0CCFDFA7EFB
:102BE800F97E78680B469B000B44DB0003444433B2
:102BF8001968BB681944786813469B001344DB00C6
:102C0800034444331960FA7EF97E78680B469B00CA
:102C18000B44DB0003444C331968BB6819447868DB
:102C280013469B001344DB0003444C331960FB7EBE
:102C38005A01FB69134403F5A0631A691D4B13403D
:102C4800002B31D0FB7E5A01FB69134403F5A063C6
:102C58001B683B613B6923F080433B613B6943F060
:102C680000433B61FB7E5A01FB69134403F5A063F3
:102C78001A463B691360FA7EF97E78680B469B001A
:102C88000B44DB00034450331B7883F00103D8B2B4
:102C9800796813469B001344DB000B44503302460B
:102CA8001A7001E000BF00E000BF00BF2037BD463A
:102CB80080BD00BF0000F81F80B586B000AF786007
:102CC8007B681B687B617B6903F588631B683B61D4
:102CD8007B6903F588631B68FB60FB6823F02E03A0
:102CE800FB603B6903F00203022B13D13B6903F03D
:102CF8000103012B0AD17B681B687A681268926904
:102D080022F000529A6178680AF072FFFB6843F07B
:102D18000203FB603B6903F00803082B42D1FB6800
:102D280043F00803FB603B6903F00403042B26D13E
:102D38007B689B69022B13D13B6903F4C023B3F56D
:102D4800802F06D17B681B680221184602F03EFEE0
:102D580011E07B681B680121184602F037FE0AE083
:102D68007B68DB68032B06D17B6903F580631A4611
:102D78004EF66023536078680AF03AFF12E07B69E8
:102D880003F588631A467B6903F588631B6823F09B
:102D98002E0313607B681B687A681268926942F098
:102DA80000529A613B6903F02003202B03D1FB6892
:102DB80043F02003FB607B6903F588631A46FB68D0
:102DC800136000BF1837BD4680BD000080B584B0D1
:102DD80000AF78600023FB600023BB607B68002B9A
:102DE80001D10123C8E07B6893F83D30DBB2002BAA
:102DF80006D17B68002283F83C2078680AF05CF8EA
:102E08007B68242283F83D207B681B687A681268F7
:102E1800126822F001021A6002F0B4F9B860BB68C7
:102E2800574AA2FB03239B0CFB607B681B68FA686C
:102E38005A607B681A687B685B6852498B4202D883
:102E4800FB68013309E0FB684FF4967101FB03F35B
:102E58004D49A1FB03139B09013313627B68196871
:102E68007B685B68474A934212D87B685B685B0063
:102E7800BA68B2FBF3F3C3F30B03032B06D97B68E1
:102E88005B685B00BA68B2FBF3F345E0042343E0F8
:102E98007B689B68002B0FD17B685A6813465B00E0
:102EA8001344BA68B2FBF3F3C3F30B03002B0CBF54
:102EB80001230023DBB210E07B685A6813469B00AD
:102EC80013449A001344BA68B2FBF3F3C3F30B0339
:102ED800002B0CBF01230023DBB2002B01D0012300
:102EE8001AE07B689B68002B0AD17B685A681346F6
:102EF8005B001344BA68B2FBF3F343F400430BE0FE
:102F08007B685A6813469B0013449A001344BA68B6
:102F1800B2FBF3F343F44043CB617B681B687A68E8
:102F2800D1697A68126A0A431A607B681B687A68F2
:102F380011697A68D2680A439A607B681B687A6864
:102F480051697A6892690A43DA607B681B687A6813
:102F58001268126842F001021A607B6800221A6443
:102F68007B68202283F83D207B6800221A637B68F7
:102F7800002283F83E20002318461037BD4680BD46
:102F880083DE1B43A0860100D34D621080B582B05A
:102F980000AF78607B68002B01D1012321E07B68BA
:102FA800242283F83D207B681B687A6812681268BF
:102FB80022F001021A60786809F0B0FF7B680022ED
:102FC8001A647B68002283F83D207B6800221A631C
:102FD8007B68002283F83E207B68002283F83C202F
:102FE800002318460837BD4680BD000080B588B06C
:102FF80002AFF860084611461A4603467B810B4625
:103008003B811346FB8000237B61FDF7C7FA78619B
:10301800FB6893F83D30DBB2202B40F0E7807B69FA
:103028000093192301227449F86800F09DFC0346B7
:10303800002B01D00223DAE0FB6893F83C30012B27
:1030480001D10223D3E0FB68012283F83C20FB680E
:103058001B681B6803F00103012B07D0FB681B6882
:10306800FA681268126842F001021A60FB681B686D
:10307800FA681268126822F400621A60FB6821225A
:1030880083F83D20FB68402283F83E20FB6800223D
:103098001A64FB683A6A5A62FB68BA8C5A85FB68FC
:1030A800564ADA62FB685B8D9AB2FB681A85F88823
:1030B8003A8979897B690193BB6A00930346F8686A
:1030C80000F0DEFA0346002B5ED0FB681B6C042B75
:1030D80005D1FB68002283F83C20012387E0FB68C8
:1030E800002283F83C20032381E07A69B96AF868F2
:1030F80000F0F9FC0346002B0FD0FB681B6C042B77
:1031080009D1FB681B68FA681268126842F40072F9
:103118001A6001236BE0032369E0FB681A68FB6807
:103128005B6A581CF96848621B781361FB681B8D41
:10313800013B9AB2FB681A85FB685B8D9BB2013B29
:103148009AB2FB685A85FB681B685B6903F0040345
:10315800042B19D1FB681B8D002B15D0FB681A684E
:10316800FB685B6A581CF96848621B781361FB6846
:103178001B8D013B9AB2FB681A85FB685B8D9BB27D
:10318800013B9AB2FB685A85FB681B8D002BACD1BA
:103198007A69B96AF86800F0E3FC0346002B0FD09F
:1031A800FB681B6C042B09D1FB681B68FA68126862
:1031B800126842F400721A60012318E0032316E033
:1031C800FB681B68FA681268126842F400721A6099
:1031D800FB68202283F83D20FB68002283F83E200C
:1031E800FB68002283F83C20002300E002231846F5
:1031F8001837BD4680BD00BF020010000000FFFF69
:1032080080B58CB002AFF860084611461A460346EE
:103218007B810B463B811346FB8000237B62FDF7D5
:10322800BDF97862FB6893F83D30DBB2202B40F0A3
:1032380012827B6A0093192301228449F86800F0FE
:1032480093FB0346002B01D0022305E2FB6893F8A9
:103258003C30012B01D10223FEE1FB68012283F8F7
:103268003C20FB681B681B6803F00103012B07D097
:10327800FB681B68FA681268126842F001021A605B
:10328800FB681B68FA681268126822F400621A6008
:10329800FB68222283F83D20FB68402283F83E2009
:1032A800FB6800221A64FB683A6B5A62FB68BA8EA4
:1032B8005A85FB68664ADA62FB685B8D9AB2FB68DE
:1032C8001A85F8883A8979897B6A0193BB6B0093E0
:1032D8000346F86800F066FA0346002B0FD0FB6837
:1032E8001B6C042B05D1FB68002283F83C200123CA
:1032F800B2E1FB68002283F83C200323ACE1FB68C1
:103308001B8D002B13D100233B62FB681B685B6994
:103318003B62FB681B689B693B623B6AFB681B68F6
:10332800FA681268126842F400721A6080E1FB6859
:103338001B8D012B1BD1FB681B68FA681268126889
:1033480022F480621A600023FB61FB681B685B69DA
:10335800FB61FB681B689B69FB61FB69FB681B6879
:10336800FA681268126842F400721A6060E1FB6839
:103378001B8D022B1BD1FB681B68FA681268126848
:1033880022F480621A60FB681B68FA681268126887
:1033980042F400621A600023BB61FB681B685B692A
:1033A800BB61FB681B689B69BB61BB6940E100238B
:1033B8007B61FB681B685B697B61FB681B689B69B9
:1033C8007B617B6934E1FB681B8D032B00F2EB808A
:1033D800FB681B8D012B27D17A6AB96BF86800F05E
:1033E800FCFB0346002B07D0FB681B6C202B01D18C
:1033F800032331E101232FE1FB685B6A591CFA685A
:103408005162FA6812681269D2B21A70FB681B8D91
:10341800013B9AB2FB681A85FB685B8D9BB2013B46
:103428009AB2FB685A8503E1FB681B8D022B4AD1CF
:103438007B6A0093BB6B00220649F86800F094FA97
:103448000346002B08D0032306E100BF020010004A
:103458000000FFFF04000100FB681B68FA6812689F
:10346800126842F400721A60FB685B6A591CFA68B9
:103478005162FA6812681269D2B21A70FB681B8D21
:10348800013B9AB2FB681A85FB685B8D9BB2013BD6
:103498009AB2FB685A85FB685B6A591CFA685162E4
:1034A800FA6812681269D2B21A70FB681B8D013B68
:1034B8009AB2FB681A85FB685B8D9BB2013B9AB296
:1034C800FB685A85B4E07B6A0093BB6B00226449B1
:1034D800F86800F049FA0346002B01D00323BBE04B
:1034E800FB681B68FA681268126822F480621A6026
:1034F800FB685B6A591CFA685162FA6812681269BB
:10350800D2B21A70FB681B8D013B9AB2FB681A8510
:10351800FB685B8D9BB2013B9AB2FB685A857B6A5C
:103528000093BB6B00224E49F86800F01DFA034671
:10353800002B01D003238FE0FB681B68FA68126830
:10354800126842F400721A60FB685B6A591CFA68D8
:103558005162FA6812681269D2B21A70FB681B8D40
:10356800013B9AB2FB681A85FB685B8D9BB2013BF5
:103578009AB2FB685A85FB685B6A591CFA68516203
:10358800FA6812681269D2B21A70FB681B8D013B87
:103598009AB2FB681A85FB685B8D9BB2013B9AB2B5
:1035A800FB685A8544E07A6AB96BF86800F015FB45
:1035B8000346002B07D0FB681B6C202B01D103238B
:1035C8004AE0012348E0FB685B6A591CFA685162CB
:1035D800FA6812681269D2B21A70FB681B8D013B37
:1035E8009AB2FB681A85FB685B8D9BB2013B9AB265
:1035F800FB685A85FB681B685B6903F00403042BAE
:1036080016D1FB685B6A591CFA685162FA6812683D
:103618001269D2B21A70FB681B8D013B9AB2FB6823
:103628001A85FB685B8D9BB2013B9AB2FB685A8591
:10363800FB681B8D002B7FF4C6AEFB68202283F845
:103648003D20FB68002283F83E20FB68002283F8B7
:103658003C20002300E0022318462837BD4680BDE1
:103668000400010080B483B000AF78607B6893F8F1
:103678003D30DBB218460C37BD465DF8047B704719
:1036880080B588B002AFF860084611461A4603466E
:103698007B810B463B811346FB80FB681B68FA68FD
:1036A8001268126842F480721A607B6A00933B6A5F
:1036B80000224FF00111F86800F056F90346002B7C
:1036C80001D0032368E0FB681B687A89D2B202F054
:1036D800FE021A617B6A3A6A3149F86800F095F986
:1036E8000346002B07D0FB681B6C042B01D1012378
:1036F80052E0032350E000237B61FB681B685B6991
:103708007B61FB681B689B697B617B697A6A396AA4
:10371800F86800F0E8F90346002B0FD0FB681B6C33
:10372800042B09D1FB681B68FA681268126842F416
:1037380000721A6001232FE003232DE0FB88012B80
:1037480005D1FB681B683A89D2B21A6123E0FB688D
:103758001B683A89120A92B2D2B21A617A6A396A35
:10376800F86800F0C0F90346002B0FD0FB681B6C0B
:10377800042B09D1FB681B68FA681268126842F4C6
:1037880000721A60012307E0032305E0FB681B6849
:103798003A89D2B21A61002318461837BD4680BD4F
:1037A8000200010080B588B002AFF86008461146F3
:1037B8001A4603467B810B463B811346FB80FB6818
:1037C8001B68FA681268126842F480621A60FB6823
:1037D8001B68FA681268126842F480721A607B6A81
:1037E80000933B6A00224FF00111F86800F0BCF822
:1037F8000346002B01D00323AFE0FB681B687A89DE
:10380800D2B202F0FE021A617B6A3A6A5549F86838
:1038180000F0FBF80346002B07D0FB681B6C042B59
:1038280001D1012399E0032397E000237B61FB6822
:103838001B685B697B61FB681B689B697B617B69B3
:103848007A6A396AF86800F04EF90346002B0FD0FF
:10385800FB681B6C042B09D1FB681B68FA681268AB
:10386800126842F400721A60012376E0032374E0C0
:10387800FB88012B05D1FB681B683A89D2B21A6113
:1038880023E0FB681B683A89120A92B2D2B21A6125
:103898007A6A396AF86800F026F90346002B0FD0D7
:1038A800FB681B6C042B09D1FB681B68FA6812685B
:1038B800126842F400721A6001234EE003234CE0C0
:1038C800FB681B683A89D2B21A617A6A396AF86861
:1038D80000F009F90346002B0FD0FB681B6C042B82
:1038E80009D1FB681B68FA681268126842F4007212
:1038F8001A60012331E003232FE0FB681B68FA6894
:103908001268126842F480721A607B6A00933B6AFC
:1039180000224FF00111F86800F026F80346002B4A
:1039280001D0032319E0FB681B687A89D2B242F000
:103938000102D2B21A617B6A3A6A0A49F86800F051
:1039480064F80346002B07D0FB681B6C042B01D1DD
:10395800012302E0032300E0002318461837BD4680
:1039680080BD00BF0200010080B584B000AFF860E0
:10397800B9603B601346FB711FE03B68B3F1FF3F42
:103988001BD03B68002B07D0FCF708FE0246BB693A
:10399800D21A3B689A4210D9FB6800221A63FB6866
:1039A800202283F83D20FB68002283F83E20FB6834
:1039B800002283F83C20032323E0BB681B0CDBB206
:1039C800012B0DD1FB681B685B69DA43BB681340A8
:1039D8009BB2002B0CBF01230023DBB21A460CE07C
:1039E800FB681B689B69DA43BB6813409BB2002BDA
:1039F8000CBF01230023DBB21A46FB799A42BCD0E4
:103A0800002318461037BD4680BD80B584B000AF8E
:103A1800F860B9607A603B6040E0FB681B685B69EE
:103A280003F48063B3F5806F1CD1FB681B68FA68E8
:103A38001268126842F400721A60FB681B686FF41F
:103A480080625A61FB6804221A64FB6800221A63C8
:103A5800FB68202283F83D20FB68002283F83C2085
:103A680001233CE07B68B3F1FF3F17D07B68002B54
:103A780007D0FCF793FD02463B68D21A7B689A424E
:103A88000CD9FB6800221A63FB68202283F83D20CA
:103A9800FB68002283F83C20032320E0BB681B0C52
:103AA800DBB2012B0CD1FB681B685B69DA43BB688E
:103AB80013409BB2002B14BF01230023DBB20BE0A1
:103AC800FB681B689B69DA43BB6813409BB2002BF9
:103AD80014BF01230023DBB2002B9ED1002318461C
:103AE8001037BD4680BD80B584B000AFF860B960BE
:103AF8007A6029E0F86800F0BAF80346002B01D094
:103B0800012329E0BB68B3F1FF3F1DD0BB68002B40
:103B180007D0FCF743FD02467B68D21ABB689A427D
:103B280012D9FB681B6C43F02002FB681A64FB681F
:103B380000221A63FB68202283F83D20FB680022DC
:103B480083F83C20032307E0FB681B685B6903F0EC
:103B58008003802BCED1002318461037BD4680BD88
:103B680080B584B000AFF860B9607A6029E0F86881
:103B780000F07DF80346002B01D0012329E0BB6843
:103B8800B3F1FF3F1DD0BB68002B07D0FCF706FD43
:103B980002467B68D21ABB689A4212D9FB681B6C32
:103BA80043F02002FB681A64FB6800221A63FB6872
:103BB800202283F83D20FB68002283F83C20032361
:103BC80007E0FB681B685B6903F00403042BCED194
:103BD800002318461037BD4680BD80B584B000AFBD
:103BE800F860B9607A6036E0FB681B685B6903F0CF
:103BF8001003102B14D1FB681B686FF010025A6178
:103C0800FB6800221A64FB6800221A63FB68202202
:103C180083F83D20FB68002283F83C20012322E042
:103C2800BB68002B07D0FCF7B9FC02467B68D21AA8
:103C3800BB689A420FD9FB681B6C43F02002FB68F3
:103C48001A64FB68202283F83D20FB68002283F871
:103C58003C20032307E0FB681B685B6903F0400313
:103C6800402BC1D1002318461037BD4680BD80B413
:103C780083B000AF78607B681B685B6903F480637E
:103C8800B3F5806F14D17B681B686FF480625A614A
:103C98007B6804221A647B6800221A637B682022EE
:103CA80083F83D207B68002283F83C20012300E054
:103CB800002318460C37BD465DF8047B70470000AA
:103CC80080B588B000AF78600023FB600223FB61F9
:103CD8000023BB6110237B6100233B610023BB6091
:103CE8007B68002B01D101232BE17B68022283F83A
:103CF80041207B68954A5A63786800F031F97B68FF
:103D08001A687B681B68DB6923F47B6323F00F0365
:103D1800D3617B681B6802221A627B681B68DB69B7
:103D2800FB607B685B69022B61D07B68DB68002BDA
:103D380002D020237B6101E010237B617B689B68B4
:103D4800202B02D87B695B007B61012001F03CFBE2
:103D5800B8607B681B69B3F5007F25D17B68DB6899
:103D6800002B10D07B699B00BA68B2FBF3F21346B4
:103D78009B0013445B001A467B685B69B2FBF3F354
:103D880005333B611FE07B69DB00BA68B2FBF3F2E5
:103D980013469B0013445B001A467B685B69B2FBC1
:103DA800F3F305333B610EE0BA687B69B2FBF3F2CB
:103DB80013469B0013445B001A467B685B69B2FBA1
:103DC800F3F305333B613B69614AA2FB0323DB083C
:103DD8003B613B699BB203F00103BB613A69BB6974
:103DE800D31A5B089BB2FB61BB691B02BB61FB6911
:103DF800012B02D9FB69FF2B0ED90223FB6100239B
:103E0800BB617B685B6C43F010027B685A6478681E
:103E180009F07EFD012394E07B681B687A681169CC
:103E2800BA691143FA690A431A627B685B689AB2F5
:103E38007B689B6899B27B68DB6898B27B689B69F2
:103E48009BB203439BB20B439BB213439BB243F415
:103E580000639BB21A46FB681343FB607B681B68D0
:103E6800FA68DA617B681B6A012B62D17B68394A80
:103E78005A637B681B68384A934201D1374A01E08C
:103E88004FF040227B681B6833498B4201D1334B8A
:103E980001E04FF04023DB6923F47B6323F00F0339
:103EA800D3617B681B682C4A934201D12B4B01E0FC
:103EB8004FF0402302221A627B681B68264A93420D
:103EC80001D1264B01E04FF04023DB69FB607B68A2
:103ED8005B68B3F5007F03D07B685B68002B03D178
:103EE8004FF480733B6101E000233B613B699AB268
:103EF8007B689B6899B27B68DB6898B27B689B6932
:103F08009BB203439BB20B439BB213439BB243F454
:103F180000639BB21A46FB681343FB607B681B680F
:103F28000D4A934201D10D4B01E04FF04023FA684E
:103F3800DA617B6800225A647B68012283F8412099
:103F4800002318462037BD4680BD00BF5B430008EC
:103F5800CDCCCCCC7544000800380040003400407B
:103F680080B483B000AF786000BF0C37BD465DF801
:103F7800047B704780B586B000AFF860B96013461F
:103F8800FB8000237B6100233B61BB68002B02D0D0
:103F9800FB88002B01D101237AE0FB6893F84130BC
:103FA800DBB2012B73D1BA68FB685A62FB681B68E5
:103FB800DB6903F007033B613B69032B02D03B69D4
:103FC800052B0AD1FB885B009AB2FB681A85FB882F
:103FD8005B009AB2FB685A8505E0FB68FA881A8587
:103FE800FB68FA885A85FB6893F84030DBB2012BEE
:103FF80001D102234CE0FB68012283F84020FB68D2
:1040080000225A64FB68032283F84120FB689B6BFB
:10401800214A1A64FB689B6B204ADA63FB689B6B36
:104028001F4ADA6407F108037B61FB68986B7B69B8
:104038001968FB681B680C331A46FB681B8D9BB21A
:10404800FCF70AFDFB681B68DB6903F48063B3F5C2
:10405800806F07D0FB681B68FA681268D26942F45F
:104068008062DA61FB681B685B6803F00203022B5D
:1040780007D0FB681B68FA681268526842F00202AF
:104088005A60FB68002283F84020002300E00223E6
:1040980018461837BD4680BD3D420008F541000866
:1040A8005942000880B582B000AF78607B6893F809
:1040B8004030DBB2012B01D1022381E07B68012271
:1040C80083F840207B6893F84130DBB2032B0DD195
:1040D8007B681B687A681268526822F002025A608C
:1040E8007B689B6B1846FCF717FD57E07B6893F8D5
:1040F8004130DBB2042B0DD17B681B687A681268EB
:10410800526822F001025A607B68DB6B1846FCF7A4
:1041180003FD43E07B6893F84130DBB2052B3DD1CA
:104128007B681B687A681268526822F003025A603A
:104138007B681B68244A934201D1244B01E04FF06D
:1041480040237A68126820498A4201D11F4A01E057
:104158004FF04022526822F003025A607B689B6B42
:104168001846FCF7D9FC7B68DB6B1846FCF7D4FCD7
:104178007B681B68144A934201D1144B01E04FF04D
:1041880040237A68126810498A4201D10F4A01E037
:104198004FF04022D26922F48062DA617B681A68A3
:1041A8007B681B68D9694FF6FF330B40D3617B6886
:1041B800012283F841207B68002283F840200023F5
:1041C80018460837BD4680BD00380040003400401E
:1041D80080B483B000AF78607B6893F84130DBB27D
:1041E80018460C37BD465DF8047B704780B584B02F
:1041F80000AF78607B689B6BFB607B681B681B6803
:1042080003F48073002B0ED1FB681B68FA681268F0
:10421800526822F002025A60FB6800225A85FB6845
:10422800012283F84120F86809F0E4F900BF10374B
:10423800BD4680BD80B584B000AF78607B689B6B5D
:10424800FB60F86809F0E8F900BF1037BD4680BD8B
:1042580080B584B000AF78607B689B6BFB60FB68BF
:104268001B68FA681268526822F003025A60FB68F9
:1042780000225A85FB6800225A86FB68012283F8CF
:104288004120FB685B6C43F00802FB685A64F868DD
:1042980009F03EFB00BF1037BD4680BD80B582B037
:1042A80000AF78607B681A687B685B6A981C7968DD
:1042B80048621B88D3607B685B8D9BB2013B9AB2D6
:1042C8007B685A857B685B8D9BB2002B0FD17B681E
:1042D8001A687B681B6859684FF65F730B40536018
:1042E8007B68012283F84120786809F083F900BFD0
:1042F8000837BD4680BD80B582B000AF78607B6866
:10430800DB6A991C7A68D1627A681268D26892B2BC
:104318001A807B685B8E9BB2013B9AB27B685A8697
:104328007B685B8E9BB2002B0FD17B681A687B6819
:104338001B6859684FF69F730B4053607B680122D6
:1043480083F84120786809F0CBFA00BF0837BD46EA
:1043580080BD80B586B000AF78607B681B689B68BD
:104368007B617B6893F84130DBB2042B3BD17B69DE
:1043780003F00103012B09D17B681B685B6803F01C
:104388004003402B02D17868FFF7B5FF7B6903F043
:104398004003402B27D17B681B685B6803F0200330
:1043A800202B20D17B681A687B681B6859684FF6F8
:1043B8009F730B40536000233B617B681B68DB687D
:1043C8003B617B681B689B683B613B697B6801229A
:1043D80083F841207B685B6C43F002027B685A6477
:1043E800786809F095FA7B6893F84130DBB2032BC3
:1043F80037D17B6903F00203022B09D17B681B6864
:104408005B6803F08003802B02D17868FFF746FFD2
:104418007B6903F00803082B23D17B681B685B6862
:1044280003F02003202B1CD17B681A687B681B686B
:1044380059684FF65F730B4053600023FB607B683D
:104448001B689B68FB60FB687B68012283F841203E
:104458007B685B6C43F004027B685A64786809F0F7
:1044680057FA00BF1837BD4680BD000080B586B03A
:1044780000AF78607B681B689B687B617B681B6802
:10448800A24A934201D1A24B01E04FF040239B681E
:104498003B617B681B68DB6903F44073B3F5007FFD
:1044A80007D07B681B68DB6903F44073002B40F07E
:1044B800B3807B6903F00203022B0AD17B681B6877
:1044C8005B6803F08003802B03D10021786800F03B
:1044D8005BF93B6903F00103012B11D17B681B6871
:1044E8008A4A934201D18A4B01E04FF040235B682E
:1044F80003F04003402B03D10121786800F0BEF996
:104508003B6903F04003402B44D17B681B687F4A1A
:10451800934201D17E4B01E04FF040235B6803F0EA
:104528002003202B36D17B681B68784A934201D13F
:10453800774B01E04FF040237A68126873498A424A
:1045480001D1734A01E04FF04022526822F0600224
:104558005A607B681A687B681B6859684FF65F73F6
:104568000B4053600023FB607B681B68DB68FB60C3
:104578007B681B689B68FB60FB687B68012283F88B
:1045880041207B685B6C43F002027B685A64786860
:1045980009F0BEF97B6903F00803082B40F0E080BE
:1045A8007B681B685B6803F02003202B40F0D880F1
:1045B8007B681A687B681B6859684FF65F730B4005
:1045C80053607B681B68514A934201D1504B01E00C
:1045D8004FF040237A6812684C498A4201D14C4A0C
:1045E80001E04FF04022526822F060025A60002336
:1045F800BB607B681B689B68BB60BB687B680122EB
:1046080083F841207B685B6C43F004027B685A6442
:10461800786809F07DF9A3E03B6903F00203022BF7
:1046280011D17B681B68394A934201D1384B01E0AC
:104638004FF040235B6803F08003802B03D10121F6
:10464800786800F0A1F87B6903F00103012B0AD117
:104658007B681B685B6803F04003402B03D1002193
:10466800786800F00BF97B6903F04003402B32D1E6
:104678007B681B685B6803F02003202B2BD17B68C9
:104688001A687B681B6859684FF69F730B40536024
:104698007B681B681D4A934201D11D4B01E04FF016
:1046A80040237A68126819498A4201D1184A01E000
:1046B8004FF04022526822F0A0025A607B68012223
:1046C80083F841207B685B6C43F002027B685A6484
:1046D800786809F01DF93B6903F00803082B40D1FD
:1046E8007B681B68094A934201D1094B01E04FF0EE
:1046F80040235B6803F02003202B32D17B681B68C2
:10470800024A934206D1024B06E000BF003800403F
:10471800003400404FF040237A68126813498A42F7
:1047280001D1134A01E04FF04022526822F0A00262
:104738005A607B681A687B681B6859684FF69F73D4
:104748000B4053607B68012283F841207B685B6CD7
:1047580043F004027B685A64786809F0D9F800E0ED
:1047680000BF00BF1837BD4680BD00BF00380040FD
:104778000034004080B483B000AF786000BF0C37CD
:10478800BD465DF8047B704780B582B000AF7860A5
:104798000B46FB70FB78002B2AD17B681A687B6874
:1047A8005B6A981C796848621B88D3607B685B8D5C
:1047B8009BB2013B9AB27B685A857B685B8D9BB242
:1047C800002B53D17B681A687B681B6859684FF6C1
:1047D8005F730B4053607B685B8E9BB2002B45D1A7
:1047E8007B68012283F841207868FFF7C3FF3DE02A
:1047F8007B681B681F4A934201D11F4A01E04FF0B2
:1048080040227B685B6A981C796848621B88D36081
:104818007B685B8D9BB2013B9AB27B685A857B684B
:104828005B8D9BB2002B21D17B681B68114A934298
:1048380001D1114B01E04FF040237A6812680D490D
:104848008A4201D10C4A01E04FF04022526822F01E
:10485800A0025A607B685B8E9BB2002B06D17B68F6
:10486800012283F841207868FFF784FF00BF0837EA
:10487800BD4680BD003800400034004080B582B09D
:1048880000AF78600B46FB70FB78002B2BD17B6860
:10489800DB6A991C7A68D1627A681268D26892B227
:1048A8001A807B685B8E9BB2013B9AB27B685A8602
:1048B8007B685B8E9BB2002B54D17B681A687B683F
:1048C8001B6859684FF69F730B4053607B685B8D7C
:1048D8009BB2002B46D17B68012283F8412078687F
:1048E800FFF748FF3EE07B68DB6A991C7A68D16273
:1048F8007A6812681D498A4201D11D4A01E04FF0C9
:104908004022D26892B21A807B685B8E9BB2013BD0
:104918009AB27B685A867B685B8E9BB2002B21D14A
:104928007B681B68114A934201D1114B01E04FF09B
:1049380040237A6812680D498A4201D10C4A01E085
:104948004FF04022526822F060025A607B685B8D0B
:104958009BB2002B06D17B68012283F8412078683E
:10496800FFF708FF00BF0837BD4680BD003800408C
:104978000034004080B586B000AF78607B68002BBB
:1049880001D101232DE27B681B6803F00103002B92
:1049980075D0A34B9B6803F00C03042B0CD0A04BE1
:1049A8009B6803F00C03082B12D19D4B5B6803F442
:1049B8008003B3F5800F0BD1994B1B6803F40033C8
:1049C800002B5BD07B685B68002B57D1012308E282
:1049D8007B685B68B3F5803F06D1914A904B1B68B2
:1049E80043F4803313601DE07B685B68B3F5A02F48
:1049F8000CD18B4A8A4B1B6843F480231360884A86
:104A0800874B1B6843F4803313600BE0844A844B64
:104A18001B6823F480331360814A814B1B6823F49D
:104A2800802313607B685B68002B13D0FBF7B6FD0F
:104A3800386108E0FBF7B2FD02463B69D31A642BE4
:104A480001D90323CDE1764B1B6803F40033002B17
:104A5800F0D014E0FBF7A2FD386108E0FBF79EFDFB
:104A680002463B69D31A642B01D90323B9E16C4B85
:104A78001B6803F40033002BF0D100E000BF7B6813
:104A88001B6803F00203002B63D0654B9B6803F09F
:104A98000C03002B0BD0624B9B6803F00C03082B14
:104AA8001CD15F4B5B6803F48003002B16D15C4B71
:104AB8001B6803F00203002B05D07B68DB68012B21
:104AC80001D001238DE15649554B1B6823F0F802AC
:104AD8007B681B69DB0013430B603AE07B68DB688B
:104AE800002B20D04F4B01221A60FBF757FD38618D
:104AF80008E0FBF753FD02463B69D31A022B01D9A4
:104B080003236EE1464B1B6803F00203002BF0D031
:104B18004349434B1B6823F0F8027B681B69DB00A1
:104B280013430B6015E03F4B00221A60FBF736FD7C
:104B3800386108E0FBF732FD02463B69D31A022BC5
:104B480001D903234DE1364B1B6803F00203002B08
:104B5800F0D17B681B6803F00803002B30D07B681A
:104B68005B69002B16D0304B01221A60FBF716FD4B
:104B7800386108E0FBF712FD02463B69D31A022BA5
:104B880001D903232DE1264B5B6F03F00203002BB1
:104B9800F0D015E0244B00221A60FBF7FFFC3861C7
:104BA80008E0FBF7FBFC02463B69D31A022B01D94C
:104BB800032316E11A4B5B6F03F00203002BF0D1BD
:104BC8007B681B6803F00403002B00F0A08000231F
:104BD800FB75134B1B6C03F08053002B0FD1002384
:104BE800FB600F4A0E4B1B6C43F0805313640C4B55
:104BF8001B6C03F08053FB60FB680123FB750B4BB8
:104C08001B6803F48073002B21D1084A074B1B68EB
:104C180043F480731360FBF7C1FC386111E000BFF7
:104C28000038024000004742800E474200700040B2
:104C3800FBF7B4FC02463B69D31A022B01D90323C4
:104C4800CFE06A4B1B6803F48073002BF0D07B68BD
:104C58009B68012B06D1664A654B1B6F43F0010325
:104C680013671CE07B689B68052B0CD1604A604B7E
:104C78001B6F43F0040313675D4A5D4B1B6F43F0E2
:104C8800010313670BE05A4A594B1B6F23F00103CA
:104C98001367574A564B1B6F23F0040313677B684F
:104CA8009B68002B15D0FBF779FC38610AE0FBF70D
:104CB80075FC02463B69D31A41F28832934201D906
:104CC80003238EE04A4B1B6F03F00203002BEED048
:104CD80014E0FBF763FC38610AE0FBF75FFC02466F
:104CE8003B69D31A41F28832934201D9032378E011
:104CF8003F4B1B6F03F00203002BEED1FB7D012B12
:104D080005D13B4A3A4B1B6C23F0805313647B68F4
:104D18009B69002B64D0364B9B6803F00C03082B6F
:104D28005CD07B689B69022B41D1324B00221A6010
:104D3800FBF734FC386108E0FBF730FC02463B69BE
:104D4800D31A022B01D903234BE0294B1B6803F02C
:104D58000073002BF0D126497B68DA697B681B6AEF
:104D68001A437B685B6A9B011A437B689B6A5B08F2
:104D7800013B1B041A437B68DB6A1B0613434B6029
:104D88001C4B01221A60FBF709FC386108E0FBF7AD
:104D980005FC02463B69D31A022B01D9032320E004
:104DA800134B1B6803F00073002BF0D018E0114B75
:104DB80000221A60FBF7F2FB386108E0FBF7EEFB14
:104DC80002463B69D31A022B01D9032309E0084B99
:104DD8001B6803F00073002BF0D101E0012300E011
:104DE800002318461837BD4680BD00BF007000403C
:104DF800003802406000474280B584B000AF786058
:104E080039607B68002B01D10123CAE0674B1B681E
:104E180003F00F023B689A420CD2644B3A68D2B254
:104E28001A70624B1B6803F00F023B689A4201D06C
:104E38000123B6E07B681B6803F00203002B20D037
:104E48007B681B6803F00403002B05D0584A584BB5
:104E58009B6843F4E05393607B681B6803F0080386
:104E6800002B05D0524A524B9B6843F46043936031
:104E78004F494F4B9B6823F0F0027B689B681343B4
:104E88008B607B681B6803F00103002B44D07B68B0
:104E98005B68012B07D1464B1B6803F40033002BDA
:104EA80019D101237DE07B685B68022B03D07B6806
:104EB8005B68032B07D13E4B1B6803F00073002B84
:104EC80009D101236DE03A4B1B6803F00203002B64
:104ED80001D1012365E03649354B9B6823F0030275
:104EE8007B685B6813438B60FBF758FBF8600AE04C
:104EF800FBF754FB0246FB68D31A41F2883293420F
:104F080001D903234DE02A4B9B6803F00C027B6810
:104F18005B689B009A42EBD1244B1B6803F00F029D
:104F28003B689A420CD9214B3A68D2B21A701F4B8F
:104F38001B6803F00F023B689A4201D0012330E05E
:104F48007B681B6803F00403002B08D01849184B32
:104F58009B6823F4E0527B68DB6813438B607B68B3
:104F68001B6803F00803002B09D01149104B9B68FC
:104F780023F460427B681B69DB0013438B6000F0FD
:104F88001DF801460A4B9B681B0903F00F03094AE9
:104F9800D35C21FA03F3084A13600020FBF7BAFA3E
:104FA800002318461037BD4680BD00BF003C0240B4
:104FB80000380240E0ED0008600000202DE9F04FC5
:104FC8008FB000AF0023FB6200237B630023BB622A
:104FD80000233B63624B9B6803F00C03042B07D050
:104FE800082B08D0002B40F0B2805E4B3B63B1E049
:104FF8005D4B3B63AEE05A4B5B6803F03F03FB62DB
:10500800574B5B6803F48003002B4ED0544B5B680E
:105018009B094FF0000440F2FF114FF0000201EA33
:10502800030102EA04020B46144660017862786ABA
:1050380040EAD36078625B013B62D7E908345B1AC7
:1050480064EB02044FEA841949EA93694FEA83182A
:10505800B8EB030869EB04094FEAC903FB61FB6974
:1050680043EA5873FB614FEAC803BB61D7E9068975
:1050780018EB010849EB02094FEA49237B617B6978
:1050880043EAD8537B614FEA48233B61D7E9048957
:1050980040464946FB6A4FF000041A462346FBF790
:1050A8008FF803460C467B6343E02D4B5B689B09F6
:1050B8004FF0000440F2FF114FF0000201EA030133
:1050C80002EA04020B4614466001F860F86840EAF8
:1050D800D360F8605B01BB60D7E902345B1A64EB0C
:1050E8000204A60146EA93669D01ED1A66EB0406E2
:1050F800F3007B607B6843EA55737B60EB003B60A1
:1051080097E860006D1846EB02064FEA862B4BEADB
:10511800955B4FEA852A55465E4628463146FB6A26
:105128004FF000041A462346FBF74AF803460C469C
:105138007B630B4B5B681B0C03F0030301335B00C1
:10514800BB627A6BBB6AB2FBF3F33B6302E0054BCD
:105158003B6300BF3B6B18463C37BD46BDE8F08F4C
:10516800003802400024F40000127A0080B400AF36
:10517800034B1B681846BD465DF8047B704700BFAB
:105188006000002080B500AFFFF7F0FF0146054B37
:105198009B689B0A03F00703034AD35C21FA03F3D5
:1051A800184680BD00380240F0ED000880B586B092
:1051B80000AF786000237B6100233B617B681B683C
:1051C80003F00103002B05D17B681B6803F004037F
:1051D800002B35D0624B00221A60FBF7DFF97861AB
:1051E80008E0FBF7DBF902467B69D31A022B01D9E9
:1051F8000323B0E05B4B1B6803F00063002BF0D186
:1052080058497B685B689A017B689B681B07134356
:10521800C1F88430524B01221A60FBF7BFF978615C
:1052280008E0FBF7BBF902467B69D31A022B01D9C8
:10523800032390E04B4B1B6803F00063002BF0D076
:105248007B681B6803F00203002B00F083800023B7
:10525800FB60444A434B1B6C43F080531364414B3F
:105268001B6C03F08053FB60FB683F4A3E4B1B6896
:1052780043F480731360FBF791F9786108E0FBF75A
:105288008DF902467B69D31A022B01D9032362E008
:10529800354B1B6803F48073002BF0D0314B1B6F28
:1052A80003F440733B613B69002B2FD07B68DB68BC
:1052B80003F440723B699A4228D02A4B1B6F23F4AF
:1052C80040733B61294B01221A60284B00221A6067
:1052D800244A3B691367234B1B6F03F00103002B20
:1052E80014D0FBF75BF978610AE0FBF757F902463F
:1052F8007B69D31A41F28832934201D903232AE009
:10530800184B1B6F03F00203002BEED07B68DB68A1
:1053180003F44073B3F5407F0DD11249114B9B68DC
:1053280023F4F8127B68DB6823F0704323F440739E
:1053380013438B6005E00B4A0A4B9B6823F4F81370
:1053480093600849074B1A6F7B68DB68C3F30B034C
:1053580013430B67002318461837BD4680BD00BFAE
:10536800680047420038024000700040400E474243
:1053780080B485B000AF78607B6803221A60114B57
:10538800D3F884309B09C3F308027B685A600D4B3D
:10539800D3F884301B0F03F007027B689A60094B2F
:1053A8009B6803F4F813FB60064B1B6F03F4407211
:1053B800FB681A437B68DA6000BF1437BD465DF8A6
:1053C800047B70470038024080B487B000AF786033
:1053D80000237B6100233B610023FB600023BB604B
:1053E8007B68012B3DD1224B9B6803F40003FB60D3
:1053F800FB68002B04D0012B2FD11E4B7B612FE0C3
:105408001B4B5B6803F48003B3F5800F08D1184B7E
:105418005B6803F03F03184AB2FBF3F33B6107E014
:10542800134B5B6803F03F03144AB2FBF3F33B6191
:105438000F4BD3F884309B09C3F308033A6902FB86
:1054480003F3BB600A4BD3F884301B0F03F0070348
:10545800BA68B2FBF3F37B6102E000237B6100BF13
:1054680000BF7B6918461C37BD465DF8047B704752
:10547800003802400080BB0000127A000024F400CB
:1054880080B582B000AF78607B68002B01D1012322
:1054980055E07B6800229A627B6893F85130DBB252
:1054A800002B06D17B68002283F85020786807F02B
:1054B8005BFE7B68022283F851207B681B687A6850
:1054C8001268126822F040021A607B681B687A68CA
:1054D80051687A68926811437A68D26811437A6889
:1054E800126911437A68526911437A68926902F421
:1054F800007211437A68D26911437A68126A1143BB
:105508007A68926A0A431A607B681B687A689269AB
:10551800120C02F004017A68526A0A435A607B68E6
:105528001B687A681268D26922F40062DA617B68C3
:1055380000225A657B68012283F85120002318460F
:105548000837BD4680BD84B080B582B000AF7860B2
:1055580007F1140080E80E00BB6A012B20D17B689C
:105568009B6B23F480327B689A637B68DB6823F447
:10557800840323F040037A68D3607B68DB6823F4F4
:1055880040127B68DA607B6C012B05D17B68DB6895
:1055980043F480127B68DA60786800F037F90CE031
:1055A8007B68DB6843F040027B68DA60786800F06B
:1055B8002DF97B684FF480329A633B6A012B0BD13B
:1055C8007B689B6843F006027B689A607B689B68EF
:1055D80043F020027B689A60002318460837BD46CE
:1055E800BDE8804004B0704780B483B000AF7860F5
:1055F8007B689B6843F001027B689A600023184629
:105608000C37BD465DF8047B704780B483B000AFAB
:1056180078607B689B6823F001027B689A600023AE
:1056280018460C37BD465DF8047B704780B582B0DC
:1056380000AF78600B46FB707B68DB6823F0C042E4
:105648007B68DA60FB78012B06D17B68DB6843F066
:1056580000527B68DA6008E0FB78002B05D17B6894
:10566800DB6843F080427B68DA603220FAF7A2FFF9
:10567800002318460837BD4680BD000080B485B0B9
:1056880000AF786039600023FB603B689B0143F002
:1056980020027B681A61FB680133FB60FB68094ADA
:1056A800934201D9032306E07B681B6903F02003BA
:1056B800202BF0D0002318461437BD465DF8047B34
:1056C800704700BF400D030080B485B000AF78601C
:1056D8000023FB607B6810221A61FB680133FB60C2
:1056E800FB68094A934201D9032306E07B681B69DA
:1056F80003F01003102BF0D0002318461437BD46D2
:105708005DF8047B704700BF400D030080B487B08C
:1057180000AFF860B96011461A460B46FB71134694
:10572800BB8000233B6100237B6197F82030002B6E
:105738001AD1BB8803339B083B6100237B610FE0D0
:10574800FB791A03FB68134403F580531A46BB68B8
:105758001B6813607B6901337B61BB680433BB60E2
:105768007A693B699A42EBD3002318461C37BD4639
:105778005DF8047B704780B487B000AFF860B9600B
:105788001346FB8000237B61FB8803339B083B6146
:1057980000237B610BE0FB6803F580531A68BB6844
:1057A8001A607B6901337B61BB680433BB607A692B
:1057B8003B699A42EFD3BB6818461C37BD465DF873
:1057C800047B704780B485B000AF78600023FB602D
:1057D8007B685B69FB607B689B69FA681340FB60C8
:1057E800FB6818461437BD465DF8047B704780B4E3
:1057F80083B000AF78607B685B6903F001031846EB
:105808000C37BD465DF8047B7047000080B485B056
:1058180000AF78600023FB60FB680133FB60FB6826
:10582800134A934201D903231BE07B681B69002BB1
:10583800F2DA0023FB607B681B6943F001027B6896
:105848001A61FB680133FB60FB68094A934201D97E
:10585800032306E07B681B6903F00103012BF0D0EA
:10586800002318461437BD465DF8047B704700BF17
:10587800400D030084B080B584B000AF786007F1B4
:105888001C0080E80E007B6803F560631A4600235D
:1058980013607B689B6B23F480227B689A637B6828
:1058A8009B6B23F400227B689A637B689B6B43F4B1
:1058B80000127B689A637B6A032B0FD17B68B3F174
:1058C800A04F0BD07B6803F580631A467B6803F50D
:1058D80080631B6843F0040313600AE07B6803F5E8
:1058E80080631A467B6803F580631B6823F0040312
:1058F800136010217868FFF7C1FE7868FFF7E4FEAF
:105908000023FB6015E0FB685A017B68134403F52C
:10591800A0631A464FF0FF339360FB685A017B6817
:10592800134403F5A0631A460023D360FB680133D0
:10593800FB603A6AFB689A42E5D80121786800F072
:10594800A4F8C820FAF736FE7B6800229A617B68C3
:105958004FF0FF325A617B68B3F1A04F0AD17B68E0
:1059680080225A627B68144A9A627B68134AC3F899
:1059780000210AE07B684FF400725A627B68104A83
:105988009A627B680F4AC3F80021BB6A002B05D1D5
:105998007B689B6943F010027B689A617B689A690F
:1059A800094B13437A689361002318461037BD46A4
:1059B800BDE8804004B0704780006000E00040000F
:1059C800000200010003E000080020A380B483B0B7
:1059D80000AF78600B46FB707B6803F580631A465E
:1059E8007B6803F580631B6823F0030313607B68FF
:1059F80003F5806319467B6803F580631A68FB78B2
:105A080003F0030313430B60FB78012B07D17B687A
:105A180003F580631A464BF68033536009E0FB7840
:105A2800022B06D17B6803F580631A4641F2707336
:105A38005360002318460C37BD465DF8047B704759
:105A480080B584B000AF78607B6803F588631B6815
:105A5800FB60FB6823F02E03FB607B6803F588631B
:105A68001A46FB6843F4807313600A20FAF7A2FD14
:105A78007B6803F588631A46FB6823F48073136018
:105A8800002318461037BD4680BD80B485B000AFEE
:105A980078600B46FB707B6803F588631B68FB60C6
:105AA800FB6823F02E03FB60FB6803F48053002B94
:105AB8000AD1FB78012B07D17B6803F588631A4666
:105AC800FB6843F480531360FB6803F48053B3F519
